:020000040800F2
:1000000000280020391000088D0E0008930E00080B
:10001000990E00089F0E0008A50E000800000000C1
:10002000000000000000000000000000AB0E00080F
:10003000B70E000800000000C30E0008CF0E000835
:10004000811000088110000881100008811000084C
:10005000811000088110000881100008811000083C
:10006000811000088110000881100008811000082C
:10007000811000088110000881100008811000081C
:10008000811000088110000881100008811000080C
:1000900081100008811000088110000881100008FC
:1000A00081100008811000088110000881100008EC
:1000B000DD0E00088110000800000000811000081B
:1000C00081100008000000000000000081100008FE
:1000D00000000000811000088110000800000000EE
:1000E0008110000881100008811000080000000045
:1000F0000000000000000000000000000000000000
:0C01000000000000000000005FF808F1A3
:10010C0010B5054C237833B9044B13B10448AFF345
:10011C0000800123237010BD1C0000200000000093
:10012C006826000808B5034B1BB103490348AFF31D
:10013C00008008BD00000000200000206826000898
:10014C0080B400AF1A4B1B681A4A82FB0312921040
:10015C00DB17D31A184A1360154B1968154B83FB20
:10016C0001239A10CB17D21A13469B0013445B0041
:10017C00CA1A114B5A60114B1B680E4A82FB0312B0
:10018C009210DB17D31A0C4A93600C4B1968094B6D
:10019C0083FB01239A10CB17D21A13469B001344EE
:1001AC005B00CA1A044BDA6000BFBD4680BC7047C6
:1001BC00400000206766666648000020440000206E
:1001CC0080B582B000AF78607B68092B00F280812B
:1001DC0001A252F823F000BF0D02000855020008DE
:1001EC009D020008E50200082D03000875030008B5
:1001FC0095040008BD030008050400084D04000820
:10020C0000220121B54801F021FA00220221B34855
:10021C0001F01CFA00220421B04801F017FA002268
:10022C000821AE4801F012FA00221021AB4801F06F
:10023C000DFA00222021A94801F008FA01224021E0
:10024C00A64801F003FA44E101220121A34801F080
:10025C00FDF900220221A14801F0F8F90022042145
:10026C009E4801F0F3F9012208219C4801F0EEF9B7
:10027C0001221021994801F0E9F901222021974827
:10028C0001F0E4F901224021944801F0DFF920E16A
:10029C0000220121914801F0D9F9002202218F4856
:1002AC0001F0D4F9012204218C4801F0CFF900228D
:1002BC0008218A4801F0CAF900221021874801F070
:1002CC00C5F901222021854801F0C0F90022402106
:1002DC00824801F0BBF9FCE0002201217F4801F0CB
:1002EC00B5F9002202217D4801F0B0F90022042169
:1002FC007A4801F0ABF900220821784801F0A6F900
:10030C0001221021754801F0A1F901222021734826
:10031C0001F09CF900224021704801F097F9D8E0D7
:10032C00012201216D4801F091F9002202216B4854
:10033C0001F08CF900220421684801F087F90122B0
:10034C000821664801F082F901221021634801F06E
:10035C007DF900222021614801F078F9002240212A
:10036C005E4801F073F9B4E0002201215B4801F012
:10037C006DF901220221594801F068F9002204218B
:10038C00564801F063F900220821544801F05EF947
:10039C0001221021514801F059F9002220214F4827
:1003AC0001F054F9002240214C4801F04FF990E043
:1003BC0000220121494801F049F900220221474855
:1003CC0001F044F900220421444801F03FF90122D4
:1003DC000821424801F03AF9012210213F4801F06E
:1003EC0035F9012220213D4801F030F9012240214C
:1003FC003A4801F02BF96CE000220121374801F05A
:10040C0025F900220221354801F020F900220421AF
:10041C00324801F01BF900220821304801F016F98E
:10042C00002210212D4801F011F9002220212B4827
:10043C0001F00CF900224021284801F007F948E0AE
:10044C0000220121254801F001F900220221234854
:10045C0001F0FCF800220421204801F0F7F80022FA
:10046C0008211E4801F0F2F8012210211B4801F06E
:10047C00EDF800222021194801F0E8F80022402173
:10048C00164801F0E3F824E000220121134801F0A2
:10049C00DDF801220221114801F0D8F800220421D4
:1004AC000E4801F0D3F8002208210C4801F0CEF8D8
:1004BC0000221021094801F0C9F800222021074828
:1004CC0001F0C4F800224021044801F0BFF800E01C
:1004DC0000BF00BF0837BD4680BD00BF000C014007
:1004EC0080B582B000AF78607B68032B72D801A214
:1004FC0052F823F01105000845050008790500089D
:10050C00AD05000800220221354801F09FF80122B8
:10051C000421334801F09AF801220821304801F0F7
:10052C0095F8012210212E4801F090F82D4B1B68F4
:10053C001846FFF745FE4EE001220221284801F043
:10054C0085F800220421264801F080F801220821B8
:10055C00234801F07BF801221021214801F076F8A4
:10056C00204B5B681846FFF72BFE34E0012202217A
:10057C001B4801F06BF801220421194801F066F8C0
:10058C0000220821164801F061F8012210211448BC
:10059C0001F05CF8134B9B681846FFF711FE1AE04C
:1005AC00012202210E4801F051F8012204210C48CD
:1005BC0001F04CF801220821094801F047F800220B
:1005CC001021074801F042F8064BDB681846FFF78C
:1005DC00F7FD00E000BF00BF0837BD4680BD00BF7F
:1005EC00000801404800002080B500AF664B1B6836
:1005FC00013B032B00F2BF8001A252F823F000BF95
:10060C001D0600086D060008C9060008270700082B
:10061C00012220215D4801F019F8012240215B489C
:10062C0001F014F801228021584801F00FF8564BC4
:10063C0002221A60564B1B68184600F0FDFA544B08
:10064C001B68544A82FB03125211DB17D31A013B6D
:10065C00514A1360514B1B68184600F015FB91E092
:10066C00642000F045FC4E4B1B68012B09D14A4B12
:10067C001B68013B484A1360484B1B68184600F046
:10068C0003FB484B1B68012B77D13F4B03221A60AD
:10069C00454B1B68184600F0CFFA434B1B683D4A8C
:1006AC0082FB03125211DB17D31A013B3A4A136037
:1006BC003A4B1B68184600F0E7FA5EE04FF4967070
:1006CC0000F016FC364B1B68012B09D1324B1B6812
:1006DC00013B314A1360314B1B68184600F0D4FAC9
:1006EC00304B1B68012B4AD1274B04221A602F4B2D
:1006FC001B68184600F0A0FA2C4B1B68254A82FB9D
:10070C0003125211DB17D31A013B234A1360234BFC
:10071C001B68184600F0B8FA31E0C82000F0E8FB7E
:10072C001F4B1B68012B09D11B4B1B68013B1A4A41
:10073C0013601A4B1B68184600F0A6FA194B1B687D
:10074C00012B1ED1104B02221A60114B1B6818464C
:10075C0000F072FA0E4B1B680E4A82FB0312521108
:10076C00DB17D31A013B0C4A13600C4B1B68184661
:10077C0000F08AFA05E000BF04E000BF02E000BF11
:10078C0000E000BF00BF80BD380000200008014021
:10079C00040000201F85EB51400000200C000020BD
:1007AC006C0000205C0000200000002008000020ED
:1007BC0080B500AF684B1B68013B032B00F2C28075
:1007CC0001A252F823F000BFE50700083B0800081F
:1007DC0097080008F508000801224FF480715F4863
:1007EC0000F034FF01224FF400715C4800F02EFF42
:1007FC0001224FF48061594800F028FF564B032228
:10080C001A60574B1B68184600F02AFA544B1B68A9
:10081C00544A82FB03125211DB17D31A013B524A82
:10082C001360524B1B68184600F056FA91E0642096
:10083C0000F0A8FB4E4B1B68012B09D14A4B1B68DF
:10084C00013B494A1360494B1B68184600F044FAB7
:10085C00484B1B68012B77D13F4B03221A60404B4E
:10086C001B68184600F0FCF93D4B1B683D4A82FBA7
:10087C0003125211DB17D31A013B3B4A13603B4B5B
:10088C001B68184600F028FA5EE04FF4967000F0F2
:10089C0079FB374B1B68012B09D1334B1B68013B90
:1008AC00314A1360314B1B68184600F015FA314B76
:1008BC001B68012B4AD1284B04221A602E4B1B6853
:1008CC00184600F0CDF92C4B1B68264A82FB03120C
:1008DC005211DB17D31A013B234A1360234B1B68BD
:1008EC00184600F0F9F931E0C82000F04BFB204B22
:1008FC001B68012B09D11C4B1B68013B1A4A136066
:10090C001A4B1B68184600F0E7F91A4B1B68012BB1
:10091C001ED1114B02221A60184B1B68184600F0AE
:10092C009FF9164B1B680F4A82FB03125211DB17FF
:10093C00D31A013B0C4A13600C4B1B68184600F091
:10094C00CBF905E000BF04E000BF02E000BF00E00F
:10095C0000BF00BF80BD00BF3C000020000801406C
:10096C00000000201F85EB51440000200C000020EB
:10097C007C000020640000200800002004000020FF
:10098C0080B584B000AF00F077FB00F03FF800F0CA
:10099C00C5F800F077F81A4801F09CFA0123BB6007
:1009AC0001237B600023FB6001220221154800F02B
:1009BC004DFE01220421134800F048FE01220821BB
:1009CC00104800F043FE012210210E4800F03EFEBC
:1009DC00FFF70AFEFFF7ECFE0B4B1B68012BF7D160
:1009EC00142000F065F9FB68032B01DD0023FB608C
:1009FC00F868FFF775FDFB680133FB60E8E700BFA3
:100A0C0080000020000801407400002080B590B0E8
:100A1C0000AF07F1180328220021184601F016FE3A
:100A2C003B1D00221A605A609A60DA601A61022338
:100A3C00BB610123BB621023FB6200237B6307F1C4
:100A4C001803184600F01AFE0346002B01D000F0E4
:100A5C00EDF80F237B600023BB600023FB600023B9
:100A6C003B6100237B613B1D0021184601F086F899
:100A7C000346002B01D000F0D9F800BF4037BD462B
:100A8C0080BD000080B586B000AF07F108030022DE
:100A9C001A605A609A60DA603B4600221A605A600B
:100AAC001D4B4FF080421A601B4B41F63F725A604F
:100ABC00194B00229A60184B0922DA60164B00225F
:100ACC001A61154B00229A61134801F0B3F90346E1
:100ADC00002B01D000F0AAF84FF48053BB6007F153
:100AEC00080319460C4801F049FB0346002B01D0C2
:100AFC0000F09CF800233B6000237B603B461946CA
:100B0C00054801F015FD0346002B01D000F08EF8CE
:100B1C0000BF1837BD4680BD8000002080B588B06E
:100B2C0000AF07F1100300221A605A609A60DA6075
:100B3C00344B9B69334A43F010039361314B9B69EF
:100B4C0003F01003FB60FB682E4B9B692D4A43F0AE
:100B5C00040393612B4B9B6903F00403BB60BB68DC
:100B6C00284B9B69274A43F008039361254B9B69EB
:100B7C0003F008037B607B68002240F2FE71224880
:100B8C0000F064FD00227F21204800F05FFD4FF44F
:100B9C00C0433B6100237B610123BB6107F1100360
:100BAC0019461B4800F0D8FB4FF400433B6100236F
:100BBC007B610023BB6107F110031946144800F058
:100BCC00CBFB40F2FE733B6101237B610023BB61D5
:100BDC000223FB6107F1100319460B4800F0BCFB24
:100BEC007F233B6101237B610023BB610223FB61FB
:100BFC0007F110031946054800F0AEFB00BF203783
:100C0C00BD4680BD0010024000080140000C0140B0
:100C1C000010014080B582B000AF786000F070F831
:100C2C00FFF78EFA00BF0837BD4680BD80B400AF19
:100C3C0072B600BFFEE7000080B483B000AF7860EE
:100C4C00054A7B681360054B00221A6000BF0C3705
:100C5C00BD4680BC704700BF580000205C000020DF
:100C6C0080B483B000AF7860054A7B681360054B95
:100C7C0000221A6000BF0C37BD4680BC704700BF15
:100C8C00600000206400002080B483B000AF786066
:100C9C00054A7B681360054B00221A6000BF0C37B5
:100CAC00BD4680BC704700BF680000206C0000206F
:100CBC0080B483B000AF7860054A7B681360054B45
:100CCC0000221A6000BF0C37BD4680BC704700BFC5
:100CDC00700000207400002080B483B000AF7860F6
:100CEC00054A7B681360054B00221A6000BF0C3765
:100CFC00BD4680BC704700BF780000207C000020FF
:100D0C0080B400AF294B1B68002B0BDD274B1B68F5
:100D1C00013B264A1360254B1B68002B02DC244B3D
:100D2C0001221A60234B1B68002B0BDD214B1B6827
:100D3C00013B204A13601F4B1B68002B02DC1E4B2F
:100D4C0001221A601D4B1B68002B0BDD1B4B1B6813
:100D5C00013B1A4A1360194B1B68002B02DC184B21
:100D6C0001221A60174B1B68002B0BDD154B1B68FF
:100D7C00013B144A1360134B1B68002B02DC124B13
:100D8C0001221A60114B1B68002B0BDD0F4B1B68EB
:100D9C00013B0E4A13600D4B1B68002B02DC0C4B05
:100DAC0001221A6000BFBD4680BC7047580000206D
:100DBC005C0000206000002064000020680000201F
:100DCC006C000020700000207400002078000020CF
:100DDC007C00002080B485B000AF154B9B69144A91
:100DEC0043F001039361124B9B6903F00103BB6059
:100DFC00BB680F4BDB690E4A43F08053D3610C4B3D
:100E0C00DB6903F080537B607B680A4B5B68FB609B
:100E1C00FB6823F0E063FB60FB6843F08063FB60DE
:100E2C00044AFB68536000BF1437BD4680BC704752
:100E3C00001002400000014080B584B000AF786023
:100E4C007B681B68B3F1804F13D10C4BDB690B4AE9
:100E5C0043F00103D361094BDB6903F00103FB6031
:100E6C00FB68002200211C2000F03FFA1C2000F03F
:100E7C0058FA00BF1037BD4680BD00BF00100240BD
:100E8C0080B400AFFEE780B400AFFEE780B400AFE3
:100E9C00FEE780B400AFFEE780B400AFFEE780B49D
:100EAC0000AF00BFBD4680BC704780B400AF00BF30
:100EBC00BD4680BC704780B400AF00BFBD4680BC4F
:100ECC00704780B500AF00F01DF900BF80BD000079
:100EDC0080B500AF024801F049F800BF80BD00BFEB
:100EEC008000002080B400AF00BFBD4680BC7047BE
:100EFC0080B582B000AF78607B68B3F5967F2AD05E
:100F0C007B68B3F5967F36DC7B68642B03D07B68FB
:100F1C00C82B10D02FE000222021194800F096FB9E
:100F2C0001224021164800F091FB01228021144837
:100F3C0000F08CFB20E001222021114800F086FB00
:100F4C00002240210E4800F081FB012280210C4838
:100F5C0000F07CFB10E001222021094800F076FB18
:100F6C0001224021064800F071FB00228021044838
:100F7C0000F06CFB00E000BF00BF0837BD4680BD31
:100F8C000008014080B582B000AF78607B68B3F593
:100F9C00967F30D07B68B3F5967F3FDC7B68642B03
:100FAC0003D07B68C82B13D038E000224FF480713B
:100FBC001D4800F04BFB01224FF400711A4800F061
:100FCC0045FB01224FF48061174800F03FFB26E0FF
:100FDC0001224FF48071144800F038FB00224FF4CA
:100FEC000071114800F032FB01224FF480610E4871
:100FFC0000F02CFB13E001224FF480710A4800F042
:10100C0025FB01224FF40071074800F01FFB002262
:10101C004FF48061044800F019FB00E000BF00BFF2
:10102C000837BD4680BD00BF00080140FFF75AFFDE
:10103C000B480C490C4A002302E0D458C45004332A
:10104C00C4188C42F9D3094A094C002301E01360FF
:10105C000432A242FBD301F0D5FAFFF791FC7047A2
:10106C00000000201C000020AC2600081C00002002
:10107C00CC000020FEE7000080B500AF084B1B68D9
:10108C00074A43F010031360032000F023F90F20EC
:10109C0000F008F8FFF79EFE0023184680BD00BF45
:1010AC000020024080B582B000AF7860124B1A6805
:1010BC00124B1B7819464FF47A73B3FBF1F3B2FB66
:1010CC00F3F3184600F03BF90346002B01D0012343
:1010DC000EE07B680F2B0AD8002279684FF0FF30A6
:1010EC0000F003F9064A7B681360002300E001233B
:1010FC0018460837BD4680BD10000020180000209F
:10110C001400002080B400AF054B1B781A46054B29
:10111C001B681344034A136000BFBD4680BC704774
:10112C0018000020C800002080B400AF024B1B68E0
:10113C001846BD4680BC7047C800002080B485B0FE
:10114C0000AF78607B6803F00703FB600C4BDB6837
:10115C00BB60BA684FF6FF031340BB60FB681A0212
:10116C00BB68134343F0BF6343F40033BB60044AD2
:10117C00BB68D36000BF1437BD4680BC704700BF4E
:10118C0000ED00E080B400AF044BDB681B0A03F0F9
:10119C0007031846BD4680BC704700BF00ED00E059
:1011AC0080B483B000AF0346FB7197F90730002B76
:1011BC000BDBFB7903F01F02064997F907305B093B
:1011CC00012000FA02F241F8232000BF0C37BD4683
:1011DC0080BC704700E100E080B483B000AF0346F0
:1011EC003960FB7197F90730002B0ADB3B68DAB2E8
:1011FC000C4997F907301201D2B20B4483F8002343
:10120C000AE03B68DAB20849FB7903F00F03043BB0
:10121C001201D2B20B441A7600BF0C37BD4680BC0B
:10122C00704700BF00E100E000ED00E080B489B041
:10123C0000AFF860B9607A60FB6803F00703FB61EC
:10124C00FB69C3F10703042B28BF0423BB61FB69B3
:10125C000433062B02D9FB69033B00E000237B61BE
:10126C004FF0FF32BB6902FA03F3DA43BB681A4052
:10127C007B699A404FF0FF317B6901FA03F3D94344
:10128C007B680B40134318462437BD4680BC70471F
:10129C0080B582B000AF78607B68013BB3F1807F92
:1012AC0001D301230FE00A4A7B68013B53600F21F5
:1012BC004FF0FF30FFF790FF054B00229A60044B74
:1012CC0007221A60002318460837BD4680BD00BFB0
:1012DC0010E000E080B582B000AF78607868FFF76E
:1012EC002DFF00BF0837BD4680BD80B586B000AF6E
:1012FC000346B9607A60FB7300237B61FFF742FF02
:10130C0078617A68B9687869FFF790FF024697F9B7
:10131C000F3011461846FFF75FFF00BF1837BD4668
:10132C0080BD80B582B000AF0346FB7197F90730E2
:10133C001846FFF735FF00BF0837BD4680BD80B5A6
:10134C0082B000AF78607868FFF7A2FF03461846BA
:10135C000837BD4680BD000080B48BB000AF78600C
:10136C00396000237B6200233B6248E101227B6AE7
:10137C0002FA03F3FB613B681B68FA691340BB611B
:10138C00BA69FB699A4240F037813B685B68A34AB3
:10139C0093425ED0A14A934275D8A14A934258D049
:1013AC009F4A93426FD89F4A934252D09D4A934290
:1013BC0069D89D4A93424CD09B4A934263D89B4A2E
:1013CC00934246D0994A93425DD8122B2AD8122BBD
:1013DC0059D801A252F823F05F1400083914000800
:1013EC004B1400088D140008931400089314000883
:1013FC009314000893140008931400089314000825
:10140C009314000893140008931400089314000814
:10141C009314000893140008931400084114000856
:10142C0055140008824A934213D02CE03B68DB68C9
:10143C003B6229E03B68DB6804333B6224E03B6899
:10144C00DB6808333B621FE03B68DB680C333B62B4
:10145C001AE03B689B68002B02D104233B6213E02B
:10146C003B689B68012B05D108233B627B68FA69BA
:10147C001A6109E008233B627B68FA695A6103E050
:10148C0000233B6200E000BFBB69FF2B01D87B68E7
:10149C0001E07B6804337B61BB69FF2B02D87B6A5C
:1014AC009B0002E07B6A083B9B003B617B691A68EE
:1014BC000F213B6901FA03F3DB431A40396A3B699C
:1014CC0001FA03F31A437B691A603B685B6803F00B
:1014DC008053002B00F09080564B9B69554A43F08B
:1014EC0001039361534B9B6903F00103BB60BB6821
:1014FC00514A7B6A9B08023352F82330FB607B6AAB
:10150C0003F003039B000F2202FA03F3DB43FA6898
:10151C001340FB607B68494A93420DD07B68484A74
:10152C00934207D07B68474A934201D1022304E0DF
:10153C00032302E0012300E000237A6A02F0030295
:10154C0092009340FA681343FB603B497B6A9B080B
:10155C000233FA6841F823203B685B6803F480137C
:10156C00002B06D0384B9A683749BB6913438B6004
:10157C0006E0354B9A68BB69DB43334913408B60FB
:10158C003B685B6803F40013002B06D02E4BDA6823
:10159C002D49BB691343CB6006E02B4BDA68BB6962
:1015AC00DB4329491340CB603B685B6803F4003391
:1015BC00002B06D0244B5A682349BB6913434B605C
:1015CC0006E0214B5A68BB69DB431F4913404B6053
:1015DC003B685B6803F48033002B06D01A4B1A6807
:1015EC001949BB6913430B6006E0174B1A68BB69BA
:1015FC00DB43154913400B607B6A01337B623B680C
:10160C001A687B6A22FA03F3002B7FF4AFAE00BF9B
:10161C0000BF2C37BD4680BC704700BF00003210A5
:10162C0000003110000022100000211000001210E8
:10163C0000001110001002400000014000080140A1
:10164C00000C0140001001400004014080B483B044
:10165C0000AF78600B467B8013467B707B78002B49
:10166C0003D07A887B681A6103E07B881A047B6854
:10167C001A6100BF0C37BD4680BC704780B586B080
:10168C0000AF78607B68002B01D101236CE27B6892
:10169C001B6803F00103002B00F08780924B5B6802
:1016AC0003F00C03042B0CD08F4B5B6803F00C0382
:1016BC00082B12D18C4B5B6803F48033B3F5803F5D
:1016CC000BD1894B1B6803F40033002B6CD07B6867
:1016DC005B68002B68D1012346E27B685B68B3F53D
:1016EC00803F06D1804B1B687F4A43F480331360E4
:1016FC002EE07B685B68002B0CD17B4B1B687A4A15
:10170C0023F480331360784B1B68774A23F48023CF
:10171C0013601DE07B685B68B3F5A02F0CD1724B96
:10172C001B68714A43F4802313606F4B1B686E4A2D
:10173C0043F4803313600BE06B4B1B686A4A23F451
:10174C0080331360684B1B68674A23F48023136053
:10175C007B685B68002B13D0FFF7E6FC386108E070
:10176C00FFF7E2FC02463B69D31A642B01D9032331
:10177C00FAE15D4B1B6803F40033002BF0D014E04E
:10178C00FFF7D2FC386108E0FFF7CEFC02463B695C
:10179C00D31A642B01D90323E6E1534B1B6803F4E2
:1017AC000033002BF0D100E000BF7B681B6803F016
:1017BC000203002B63D04C4B5B6803F00C03002B33
:1017CC000BD0494B5B6803F00C03082B1CD1464B28
:1017DC005B6803F48033002B16D1434B1B6803F07A
:1017EC000203002B05D07B681B69012B01D0012360
:1017FC00BAE13D4B1B6823F0F8027B685B69DB00A8
:10180C00394913430B603AE07B681B69002B20D0ED
:10181C00364B01221A60FFF787FC386108E0FFF7AE
:10182C0083FC02463B69D31A022B01D903239BE1AB
:10183C002D4B1B6803F00203002BF0D02A4B1B68C6
:10184C0023F0F8027B685B69DB00274913430B60CC
:10185C0015E0264B00221A60FFF766FC386108E0A1
:10186C00FFF762FC02463B69D31A022B01D9032312
:10187C007AE11D4B1B6803F00203002BF0D17B684F
:10188C001B6803F00803002B3AD07B689B69002B84
:10189C0019D0174B01221A60FFF746FC386108E09B
:1018AC00FFF742FC02463B69D31A022B01D90323F2
:1018BC005AE10D4B5B6A03F00203002BF0D00120C0
:1018CC0000F09AFA1CE00A4B00221A60FFF72CFC7D
:1018DC0038610FE0FFF728FC02463B69D31A022B54
:1018EC0008D9032340E100BF00100240000042422F
:1018FC00800442429E4B5B6A03F00203002BE9D149
:10190C007B681B6803F00403002B00F0A680002307
:10191C00FB75974BDB6903F08053002B0DD1944B77
:10192C00DB69934A43F08053D361914BDB6903F03D
:10193C008053BB60BB680123FB758E4B1B6803F4A3
:10194C008073002B18D18B4B1B688A4A43F480732D
:10195C001360FFF7E9FB386108E0FFF7E5FB02468F
:10196C003B69D31A642B01D90323FDE0814B1B681F
:10197C0003F48073002BF0D07B68DB68012B06D15D
:10198C007B4B1B6A7A4A43F0010313622DE07B68A0
:10199C00DB68002B0CD1764B1B6A754A23F00103D4
:1019AC001362734B1B6A724A23F0040313621CE02C
:1019BC007B68DB68052B0CD16D4B1B6A6C4A43F0C2
:1019CC00040313626A4B1B6A694A43F001031362F6
:1019DC000BE0674B1B6A664A23F001031362644BEE
:1019EC001B6A634A23F0040313627B68DB68002BD9
:1019FC0015D0FFF799FB38610AE0FFF795FB02461B
:101A0C003B69D31A41F28832934201D90323ABE0EC
:101A1C00574B1B6A03F00203002BEED014E0FFF7C8
:101A2C0083FB38610AE0FFF77FFB02463B69D31A60
:101A3C0041F28832934201D9032395E04C4B1B6A47
:101A4C0003F00203002BEED1FB7D012B05D1484B9B
:101A5C00DB69474A23F08053D3617B68DB69002B39
:101A6C0000F08180424B5B6803F00C03082B61D0C3
:101A7C007B68DB69022B46D13F4B00221A60FFF7D3
:101A8C0053FB386108E0FFF74FFB02463B69D31A62
:101A9C00022B01D9032367E0354B1B6803F000735D
:101AAC00002BF0D17B681B6AB3F5803F08D1304B1B
:101ABC005B6823F400327B689B682D4913434B60B1
:101ACC002B4B5B6823F474127B68196A7B685B6A26
:101ADC000B43274913434B60274B01221A60FFF736
:101AEC0023FB386108E0FFF71FFB02463B69D31A62
:101AFC00022B01D9032337E01D4B1B6803F0007345
:101B0C00002BF0D02FE01C4B00221A60FFF70CFBCF
:101B1C00386108E0FFF708FB02463B69D31A022B39
:101B2C0001D9032320E0124B1B6803F00073002B38
:101B3C00F0D118E07B68DB69012B01D1012313E0A4
:101B4C000B4B5B68FB60FB6803F480327B681B6AA1
:101B5C009A4206D1FB6803F470127B685B6A9A4266
:101B6C0001D0012300E0002318461837BD4680BD84
:101B7C0000100240007000406000424280B584B00A
:101B8C0000AF786039607B68002B01D10123D0E075
:101B9C006A4B1B6803F007033A689A4210D9674BEB
:101BAC001B6823F0070265493B6813430B60634BCA
:101BBC001B6803F007033A689A4201D00123B8E08E
:101BCC007B681B6803F00203002B20D07B681B682A
:101BDC0003F00403002B05D0594B5B68584A43F4BF
:101BEC00E06353607B681B6803F00803002B05D08F
:101BFC00534B5B68524A43F460535360504B5B68E1
:101C0C0023F0F0027B689B684D4913434B607B6863
:101C1C001B6803F00103002B40D07B685B68012B31
:101C2C0007D1474B1B6803F40033002B15D101235C
:101C3C007FE07B685B68022B07D1414B1B6803F08C
:101C4C000073002B09D1012373E03D4B1B6803F09B
:101C5C000203002B01D101236BE0394B5B6823F0AD
:101C6C0003027B685B68364913434B60FFF75CFAF1
:101C7C00F8600AE0FFF758FA0246FB68D31A41F203
:101C8C008832934201D9032353E02D4B5B6803F058
:101C9C000C027B685B689B009A42EBD1274B1B685C
:101CAC0003F007033A689A4210D2244B1B6823F0C6
:101CBC00070222493B6813430B60204B1B6803F05F
:101CCC0007033A689A4201D0012332E07B681B6813
:101CDC0003F00403002B08D0194B5B6823F4E0627B
:101CEC007B68DB68164913434B607B681B6803F009
:101CFC000803002B09D0124B5B6823F460527B68FD
:101D0C001B69DB000E4913434B6000F021F80246BF
:101D1C000B4B5B681B0903F00F030A49CB5C22FADF
:101D2C0003F3094A1360094B1B681846FFF7BAF90D
:101D3C00002318461037BD4680BD00BF002002406E
:101D4C000010024080260008100000201400002023
:101D5C0080B487B000AF0023FB600023BB6000237E
:101D6C007B6100237B6000233B611E4B5B68FB6047
:101D7C00FB6803F00C03042B02D0082B03D027E0E4
:101D8C00194B3B6127E0FB689B0C03F00F03174AD0
:101D9C00D35C7B60FB6803F48033002B10D0114BB9
:101DAC005B685B0C03F00103114AD35CBB607B687E
:101DBC000D4A02FB03F2BB68B2FBF3F37B6104E058
:101DCC007B680C4A02FB03F37B617B693B6102E09D
:101DDC00054B3B6100BF3B6918461C37BD4680BCB8
:101DEC00704700BF0010024000127A0090260008D5
:101DFC00A026000800093D0080B485B000AF7860D3
:101E0C000A4B1B680A4AA2FB03235B0A7A6802FB93
:101E1C0003F3FB6000BFFB685A1EFA60002BF9D17C
:101E2C0000BF00BF1437BD4680BC704710000020B7
:101E3C00D34D621080B582B000AF78607B68002B08
:101E4C0001D1012341E07B6893F83D30DBB2002BDC
:101E5C0006D17B68002283F83C207868FEF7ECFF03
:101E6C007B68022283F83D207B681A687B68043308
:101E7C001946104600F06EFA7B68012283F8462062
:101E8C007B68012283F83E207B68012283F83F2087
:101E9C007B68012283F840207B68012283F8412073
:101EAC007B68012283F842207B68012283F843205F
:101EBC007B68012283F844207B68012283F845204B
:101ECC007B68012283F83D20002318460837BD4665
:101EDC0080BD000080B485B000AF78607B6893F85B
:101EEC003D30DBB2012B01D0012335E07B680222AF
:101EFC0083F83D207B681B68DA687B681B6842F0BE
:101F0C000102DA607B681B68164A934209D07B6831
:101F1C001B68B3F1804F04D07B681B68124A934254
:101F2C0011D17B681B689B6803F00703FB60FB689F
:101F3C00062B10D07B681B681A687B681B6842F004
:101F4C0001021A6007E07B681B681A687B681B68D3
:101F5C0042F001021A60002318461437BD4680BCBB
:101F6C00704700BF002C01400004004080B582B0D7
:101F7C0000AF78607B681B681B6903F00203022BBF
:101F8C0022D17B681B68DB6803F00203022B1BD198
:101F9C007B681B686FF002021A617B6801221A775A
:101FAC007B681B689B6903F00303002B03D07868E4
:101FBC0000F0B4F905E0786800F0A7F9786800F053
:101FCC00B6F97B6800221A777B681B681B6903F0E3
:101FDC000403042B22D17B681B68DB6803F0040329
:101FEC00042B1BD17B681B686FF004021A617B68A1
:101FFC0002221A777B681B689B6903F44073002BE1
:10200C0003D0786800F08AF905E0786800F07DF973
:10201C00786800F08CF97B6800221A777B681B6863
:10202C001B6903F00803082B22D17B681B68DB6853
:10203C0003F00803082B1BD17B681B686FF00802A8
:10204C001A617B6804221A777B681B68DB6903F0D2
:10205C000303002B03D0786800F060F905E0786882
:10206C0000F053F9786800F062F97B6800221A7767
:10207C007B681B681B6903F01003102B22D17B6853
:10208C001B68DB6803F01003102B1BD17B681B68EB
:10209C006FF010021A617B6808221A777B681B6844
:1020AC00DB6903F44073002B03D0786800F036F939
:1020BC0005E0786800F029F9786800F038F97B6859
:1020CC0000221A777B681B681B6903F00103012B44
:1020DC000ED17B681B68DB6803F00103012B07D171
:1020EC007B681B686FF001021A617868FEF792FD3D
:1020FC007B681B681B6903F08003802B0ED17B6807
:10210C001B68DB6803F08003802B07D17B681B689E
:10211C006FF080021A61786800F06BFA7B681B68BC
:10212C001B6903F04003402B0ED17B681B68DB68F6
:10213C0003F04003402B07D17B681B686FF0400213
:10214C001A61786800F0FCF87B681B681B6903F067
:10215C002003202B0ED17B681B68DB6803F0200367
:10216C00202B07D17B681B686FF020021A617868FE
:10217C0000F036FA00BF0837BD4680BD80B584B08C
:10218C0000AF786039600023FB737B6893F83C30B8
:10219C00012B01D10223B4E07B68012283F83C209F
:1021AC007B68022283F83D207B681B689B68BB60C0
:1021BC00BB6823F07703BB60BB6823F47F43BB6031
:1021CC007B681B68BA689A603B681B68B3F5005F54
:1021DC003ED0B3F5005F00F28780B3F5805F00F06E
:1021EC008680B3F5805F7FD8702B1AD0702B7BD88C
:1021FC00602B50D0602B77D8502B3CD0502B73D801
:10220C00402B58D0402B6FD8302B64D0302B6BD850
:10221C00202B60D0202B67D8002B5CD0102B5AD0F1
:10222C0062E07B6818683B6899683B685A683B6851
:10223C00DB6800F05EF97B681B689B68BB60BB6861
:10224C0043F07703BB607B681B68BA689A604FE009
:10225C007B6818683B6899683B685A683B68DB6820
:10226C0000F047F97B681B689A687B681B6842F42E
:10227C0080429A603CE07B6818683B6859683B6810
:10228C00DB681A4600F0BEF87B681B6850211846C4
:10229C0000F015F92CE07B6818683B6859683B68BE
:1022AC00DB681A4600F0DCF87B681B686021184676
:1022BC0000F005F91CE07B6818683B6859683B68BE
:1022CC00DB681A4600F09EF87B681B6840211846B4
:1022DC0000F0F5F80CE07B681A683B681B6819463F
:1022EC00104600F0ECF803E00123FB7300E000BFA4
:1022FC007B68012283F83D207B68002283F83C2018
:10230C00FB7B18461037BD4680BD80B483B000AF50
:10231C00786000BF0C37BD4680BC704780B483B07A
:10232C0000AF786000BF0C37BD4680BC704780B4EE
:10233C0083B000AF786000BF0C37BD4680BC7047DF
:10234C0080B483B000AF786000BF0C37BD4680BC52
:10235C007047000080B485B000AF786039607B684E
:10236C001B68FB607B68254A934207D07B68B3F1FE
:10237C00804F03D07B68224A934208D1FB6823F03C
:10238C007003FB603B685B68FA681343FB607B6817
:10239C001A4A934207D07B68B3F1804F03D07B6815
:1023AC00174A934208D1FB6823F44073FB603B68E7
:1023BC00DB68FA681343FB60FB6823F080023B6820
:1023CC005B691343FB607B68FA681A603B689A6828
:1023DC007B68DA623B681A687B689A627B68074A9A
:1023EC00934203D13B681A697B681A637B680122AC
:1023FC005A6100BF1437BD4680BC7047002C0140A9
:10240C000004004080B487B000AFF860B9607A6017
:10241C00FB681B6A7B61FB681B6A23F00102FB688B
:10242C001A62FB689B693B613B6923F0F0033B61DB
:10243C007B681B013A6913433B617B6923F00A03F8
:10244C007B617A69BB6813437B61FB683A699A616B
:10245C00FB687A691A6200BF1C37BD4680BC7047A6
:10246C0080B487B000AFF860B9607A60FB681B6A13
:10247C007B61FB681B6A23F01002FB681A62FB6825
:10248C009B693B613B6923F470433B617B681B0395
:10249C003A6913433B617B6923F0A0037B61BB6802
:1024AC001B017A6913437B61FB683A699A61FB688B
:1024BC007A691A6200BF1C37BD4680BC704780B475
:1024CC0085B000AF786039607B689B68FB60FB6807
:1024DC0023F07003FB603A68FB68134343F0070377
:1024EC00FB607B68FA689A6000BF1437BD4680BCFD
:1024FC00704780B487B000AFF860B9607A603B6019
:10250C00FB689B687B617B6923F47F437B613B6841
:10251C001A027B681A43BB6813437A6913437B61C5
:10252C00FB687A699A6000BF1C37BD4680BC704757
:10253C0080B485B000AF786039607B6893F83C302C
:10254C00012B01D1022341E07B68012283F83C205E
:10255C007B68022283F83D207B681B685B68FB600C
:10256C007B681B689B68BB60FB6823F07003FB6097
:10257C003B681B68FA681343FB607B681B68FA684E
:10258C005A607B681B68144A934209D07B681B68AD
:10259C00B3F1804F04D07B681B68104A93420CD176
:1025AC00BB6823F08003BB603B685B68BA6813436D
:1025BC00BB607B681B68BA689A607B68012283F8F1
:1025CC003D207B68002283F83C20002318461437FA
:1025DC00BD4680BC704700BF002C01400004004089
:1025EC0080B483B000AF786000BF0C37BD4680BCB0
:1025FC00704780B483B000AF786000BF0C37BD4625
:10260C0080BC704770B500260C4D0D4C641BA4109B
:10261C00A64209D100F022F800260A4D0A4C641B90
:10262C00A410A64205D170BD55F8043B984701365D
:10263C00EEE755F8043B98470136F2E7A42600086C
:10264C00A4260008A4260008A82600080346024475
:10265C00934200D1704703F8011BF9E7F8B500BFAE
:10266C00F8BC08BC9E467047F8B500BFF8BC08BC67
:04267C009E467047BF
:102680000000000000000000010203040607080922
:1026900002030405060708090A0B0C0D0E0F1010A3
:0426A0000102000033
:0426A40031010008F8
:0426A8000D01000818
:1026AC002C010000F4010000C800000064000000D0
:0C26BC000024F4001000000001000000E9
:0400000508001039A6
:00000001FF
